:020000040802F0
:10000000D8850010FD040208FB400208DD2F02081D
:10001000E3400208BF2F0208074102080000000069
:10002000000000000000000000000000B50302080E
:10003000D72F0208000000006D040208D104020856
:100040001705020817050208170502081705020818
:100050001705020817050208170502081705020808
:1000600017050208170502081705020817050208F8
:1000700017050208170502081705020817050208E8
:100080001705020817050208E1EF040831F2040819
:1000900025F20408170502082BF2040817050208C8
:1000A000C50305081705020811040508170502080D
:1000B00017050208170502081705020817050208A8
:1000C0001705020817050208170502081D00050894
:1000D000230005081705020817050208170502087E
:1000E000B9FA0408014102081705020817050208B9
:1000F00017050208890405081705020817050208F4
:100100001705020817050208170502082900050847
:1001100017050208170502083904050861040508D7
:100120001705020817050208170502081705020837
:100130001705020851F904081705020843F20408DC
:1001400037F20408170502083DF2040817050208F3
:100150001705020817050208170502081705020807
:1001600017050208170502081705020817050208F7
:1001700017050208170502081705020817050208E7
:10018000170502081705020800F002F800F02DF824
:100190000AA090E8000C82448344AAF10107DA45E2
:1001A00001D100F022F8AFF2090EBAE80F0013F007
:1001B000010F18BFFB1A43F001031847E08C04003D
:1001C000108D04000023002400250026103A28BFCB
:1001D00078C1FBD8520728BF30C148BF0B607047B9
:1001E00010B5002002F030FE10BD02F072FE114684
:1001F00000F08FF827F098F902F090FE70477047F2
:1002000002020346E777835100000208000006005F
:1002100000000020C0FF01000000000000000000FE
:100220000761454D533030616C6C000000000000E8
:1002300001000100010000004558540000000000CA
:100240004A756C20323020323032332031323A322B
:10025000303A3136000000000000000000000000CD
:10026000000000000000000000000000000000008E
:10027000000000000000000000000000000000007E
:100280000A444FF0000C10F8013B13F0070408BFBC
:1002900010F8014B1D1108BF10F8015B641E05D05A
:1002A00010F8016B641E01F8016BF9D113F0080F0F
:1002B0001EBF10F8014BAD1C0C1B09D16D1E58BFA1
:1002C00001F801CBFAD505E014F8016B01F8016BD8
:1002D0006D1EF9D59142D6D3704766293EF03F8016
:1002E00003681B0A28BF41F08001642901F066827F
:1002F000752901F06382782901F00283E42901F075
:100300009982F82901F00A83732902F07A82002089
:1003100070471FB53DF0CDFF9DE8030001F00BFFD6
:1003200002F0E0FA0400002000213DF029FC401C0E
:100330006060002000213DF00DFCE0601FBD03B4B3
:10034000FFF74EFF03BC01F0D5FE000080F30988E3
:100350007047EFF309807047684680F309880448C6
:100360000078C00714BF0220032080F31488704770
:10037000FC030010DFF818C0EFF305831B0618BF5D
:100380006047EFF31483DB0708BF604700DF704767
:1003900035A50508DFF818C0EFF305831B0618BF65
:1003A0006047EFF31483DB0708BF604700DF704747
:1003B000ADA50508EFF30980816911F8021CE1BBC6
:1003C00090E80F1010B5E047BDE81040EFF3098C3E
:1003D0008CE80700214B93E80600914208BF704764
:1003E00041B91EF0100F16D11D49086820F0010018
:1003F000086010E01EF0100F06BF2CED108A0120DF
:10040000002081F838002CE9F00FC1F83CC00CB492
:100410003BF098FD0CBC1A60D2F83CC0BCE8F00F71
:1004200092F8380000280EBF6FF0020E6FF0120E27
:10043000BCEC108A8CF30988704710B5094A126821
:10044000914209D8084C54F8214090E80F10A04779
:10045000EFF3098C8CE80F0010BD00007003001052
:1004600034EF00E044EF040844EF040810B53BF01B
:1004700063FCBDE81040154B93E80600914208BFAD
:100480007047EFF3098C1EF0100F06BF2CED108A99
:100490000120002081F838002CE9F00FC1F83CC0A1
:1004A0000CB43BF04FFD0CBC1A60D2F83CC0BCE869
:1004B000F00F92F8380000280EBF6FF0020E6FF0B8
:1004C000120EBCEC108A8CF3098870477003001080
:1004D00010B53BF05BFDCCE710B538F029FE3BF0E2
:1004E00055FDC6E7004870470030000000487047DF
:1004F00000FC0100401EFDD1704700000948804704
:1005000009480047FEE7FEE7FEE7FEE7FEE7FEE7F5
:10051000FEE7FEE7FEE7FEE704480549054A064B0D
:10052000704700001D030508890102080000002033
:10053000D885001000FC0120D8550010F7B51446EE
:100540006E46002914BF0125002588480078E8B1CF
:1005500000F07AFA2946304630F074FCC5B2012C1E
:100560000DD183480099834CC0F8261001462068BD
:100570004022001D01F02DFC206800F040FE00F03C
:100580006DFA012D02BF002003B0F0BD4FF0FF3027
:1005900003B0F0BD38B56C460090002914BF0125AA
:1005A00000257248007860B100F04EFA29462046D6
:1005B00030F048FCC4B200F051FA012C04BF002016
:1005C00038BD4FF0FF3038BD2DE9F34767480D4681
:1005D000E94600784FF0FF37F0B1674E3088D8B168
:1005E00000F032FA30880024002888BFDFF88C81C0
:1005F0000FD900BFC4EBC40008EB400004224946F9
:100600000A3001F09BFB60B1601CC4B230888442A8
:10061000F0D300F023FA11E002B04FF0FF30BDE854
:10062000F087C4EBC40008EB4000041D00F016FA8C
:1006300000271DB120682860A088A88002B0384635
:10064000BDE8F0872DE9F1434848E8464FF0FF3612
:100650000078E8B1484D2888D0B100F0F5F9288835
:100660000024002888BF454F0FD900BFC4EBC40049
:1006700007EB4000042241460A3001F05FFB58B10D
:10068000601CC4B228888442F0D300F0E7F919E076
:100690004FF0FF30BDE8F883C4EBC40007EB400027
:1006A000041D00F0DBF906223549204601F046FB27
:1006B00058B106223349204601F040FB002818BFFC
:1006C000002602D03046BDE8F8834FF0FF36F9E748
:1006D000002070470020704710B5254CFF212046B0
:1006E00030F0EFF928484FF4C1634FF0080C01696E
:1006F000C4F80610828A6281A3814FF48073E3817B
:10070000A4F810C04FF0060C84F812C04FF0040C8F
:1007100084F813C0A382C4F8161062838069E06174
:1007200004F1200030F0C9F90020C4F82600C4F814
:100730002A00C4F82E00C4F83200C4F836000D4A6E
:10074000C4F83A00E08704F1400111602A220A80CF
:10075000488010BD90F82010202984BF4FF0FF3052
:10076000704710B500F0F5FC002010BD0802001025
:10077000A02200100002001042030010FC2500100F
:1007800062E3050868E3050828230010B84A126FE1
:1007900002B11047FEE770B50C46B8B10546FFF749
:1007A00097FF0646284600F091FC0644284600F0D4
:1007B00029FA0644284600F06CFA0644284600F060
:1007C00067FC3044002C18BF206070BDE120A84AAF
:1007D000A8A1126F12B19047002070BDFEE710B5BE
:1007E000A34C606F002808BF10BD80470028AB49AC
:1007F000086018BF10BDE020226FA9A112B1BDE8AA
:1008000010401047FEE770B5A44D416F81B1816F74
:10081000974C00291FBFC16F0029D0F88000002825
:100820000DD0606F002818D08047286080B114E098
:1008300000218167C167C0F8801029600DE0226F38
:10084000E320A7A11AB190474FF0FF3070BDFEE73B
:10085000226FE02092A112B19047002070BDFEE708
:1008600010B5D821824801F0DCFB8C4900200860DB
:1008700010BD2DE9F0417E4C8846050007D02A6F57
:100880002267287850B1E420A0A132B12EE0226F77
:10089000E120ABA1002A29D1FEE7FEE7B1480078AC
:1008A000012804D02846FFF755FF20B11AE0E020C8
:1008B000ADA1DAB9FEE7D8216D4801F0B2FB774F60
:1008C000002628463E6000F01FFC58B9284600F07C
:1008D0009FF938B9284600F0E2F918B9284600F027
:1008E000DDFB40B1AA49226FE3205AB190474FF097
:1008F000FF30BDE8F08141462846FFF7EBFE0028B7
:1009000075D100E0FEE72846FFF7E2FE20F0030085
:1009100080444146284600F0DBFB002867D128468A
:1009200000F0D4FB20F0030080444146284600F04C
:100930006BF900285BD1284600F064F920F0030031
:1009400080444146284600F0A6F900284FD12846A9
:1009500000F09FF920F0030000EB0801284600F0AA
:1009600099FB002843D1284600F092FBD822294663
:100970003F4801F0B5FA3E4D2846FFF7ADFE00288E
:1009800035D1686F60B1A96F00291FBFE96F0029D9
:10099000D5F88010002909D08047386068B111E08F
:1009A000AE67EE67C5F880603E600BE0226FE32023
:1009B0004BA10AB190471AE0FEE7226FE02038A170
:1009C0002AB19047284600F085FB80B900E0FEE799
:1009D000284600F01BF950B9284600F05EF930B9FE
:1009E000284600F059FB002808BFBDE8F0814FF011
:1009F000FF30BDE8F08170B504000D4616D0FFF75A
:100A000067FE0646204600F061FB0644204600F0E3
:100A1000F9F80644204600F03CF90644204600F070
:100A200037FB3044002D18BF286070BDE120104A0C
:100A300010A1126F12B19047002070BDFEE718E7B9
:100A4000002070470020704714480068002808BF45
:100A50007047074AD2F88010926F10470F4800681D
:100A6000002808BF70470249C96F084700687047EF
:100A7000282300106970616C5F626173655F6D654A
:100A80006D6F72795F67657473697A652829206E66
:100A900065656473206120636667000004020010CE
:100AA0006970616C5F626173655F6869645F7468D7
:100AB000726561647361666574795F696E697428D3
:100AC000293A2063616E6E6F7420616C6C6F636194
:100AD000746520746865206D757465780000000089
:100AE0006970616C5F626173655F696E6974696189
:100AF0006C6973652829206E65656473206F736166
:100B00006C2066756E6374696F6E73006970616CDA
:100B10005F626173655F696E697469616C69736551
:100B200028293A20756E737570706F727465642031
:100B30007463702F697020737461636B0000000030
:100B40006970616C5F626173655F696E6974696128
:100B50006C69736528293A206D697373696E672023
:100B600063666700080200106970616C5F62617300
:100B7000655F696E697469616C69736528293A20DB
:100B8000616C72656164792073746172746564006C
:100B900018ED050831B524486C46007838B1234873
:100BA00090F82C0018B19DF80000EF2802D04FF00B
:100BB000FF3038BDFFF748FF204636F073FE0028AF
:100BC00014BF00244FF0FF34FFF748FF204638BD24
:100BD00031B515486C46007888B1144890F82C005F
:100BE00068B1FFF731FF204636F084FE00280CBFC5
:100BF0004FF0FF340024FFF731FF204638BD4FF09F
:100C0000FF3038BD0020704700207047002070473B
:100C100090F82D10062984BF4FF0FF30704710B5B3
:100C200000F019FB002010BD08020010282300105E
:100C3000224810B5406848B12148017801290CD0FC
:100C40000121017037F00AF9002010BD1DA1E1203B
:100C5000FFF79CFD4FF0FF3010BD24A1E020FFF70F
:100C600095FD4FF0FF3010BD10B5FFF7EDFE37F0EA
:100C700011FBBDE81040FFF7F1BE10B5FFF7E4FE31
:100C80003CF044FEBDE81040FFF7E8BE0B4840686A
:100C9000704700207047002070470020704701898E
:100CA000B1F5C05F84BF4FF0FF30704710B5002131
:100CB000034A117000F027FB002010BD282300100C
:100CC000080200106970616C5F7379735F737461FF
:100CD000727428293A206D697373696E6720636F97
:100CE0006E66696775726174696F6E006970616CB8
:100CF0005F7379735F737461727428293A2063613A
:100D00006E6E6F7420737461727420616761696EB6
:100D10000000000008B1062801D900207047F0B596
:100D200015460A46E64900EB400085B001EBC000DD
:100D3000A0F1180450F8080C0A9F1E4698B11046FE
:100D4000FFF794FE0346E06820B1984204BF208973
:100D5000A84208D10396ADF808700095D4E904C004
:100D600002AA2146E04705B00020F0BD4107090E68
:100D7000C0F3C00241EA0211C0F3001210B541EA0B
:100D8000C201C0F3401041EA8004CE480078002838
:100D900008BF10BDFFF758FECB4A012120463CF0AA
:100DA000D9FDC0B1C64900EB400201EBC20404F812
:100DB000180C002024F8160C44F8140C24F8100C1D
:100DC00044F80C0C44F8080C44F8040CFFF746FEF9
:100DD000A4F1180010BDFFF741FE002010BD70B552
:100DE00004001CBF2078002821D0FFF72DFE60886A
:100DF000002518B120783CF08FFD658020783CF00C
:100E00000BFE06462078AE4900EB400001EBC00027
:100E100000F8185C2570658065602581E5602561B6
:100E20006561FFF71BFE002E1CBF002070BD4FF058
:100E3000FF3070BD70B515460E4604001DBF20780A
:100E40000028002D4FF0FF3008BF70BDFFF7FCFDFC
:100E5000608820B120783CF05FFD002060809849D8
:100E6000002000BF00EB400201EBC2025288AA4200
:100E700010D0401CC0B20628F4D3207829463CF09C
:100E80008DFD10F0FF0F05D065806660FFF7E6FD71
:100E9000002070BDFFF7E2FD4FF0FF3070BD2DE97F
:100EA000F04790460F46040019BF207800284FF005
:100EB000FF30BDE8F087FFF7C7FD608850BB2078A2
:100EC00000264546002818BF002D2DD0FFF7BCFD99
:100ED00060884FF0000920B120783CF01DFDA4F897
:100EE00002907749002000BF00EB400201EBC202F4
:100EF0005288AA4216D0401CC0B20628F4D32078EB
:100F000029463CF04BFD10F0FF0F0BD0658066606A
:100F1000FFF7A4FDA4F80880E760FFF79FFD00201D
:100F2000BDE8F087FFF79AFDFFF798FD4FF0FF301F
:100F3000BDE8F08710B5040019BF207800284FF0F5
:100F4000FF3010BDFFF780FD00202081E060FFF73B
:100F500085FD002010BD2DE9FF4182B098460C466A
:100F6000050004AF1CBF2878002828D06888002816
:100F700018BF002C23D0606800281CBF20880028E0
:100F80001DD0FFF761FD20883CF0DCFC06001BD083
:100F90002288616800F01DFF208800902878334681
:100FA000424639463CF050FD00280CBF4FF0FF345C
:100FB0000024FFF753FD06B02046BDE8F08106B0DF
:100FC0004FF0FF30BDE8F081FFF748FD06B04FF06D
:100FD000FF30BDE8F0812DE9F04383B00C460500F9
:100FE0001CBF688800283CD0E86800281CBF2889FE
:100FF000002836D0FFF728FDE86801902878B5F87A
:1010000008900DF104084FF0FF3600281CBF6888D7
:10101000002820D0002C1FBF6068002820880028EE
:1010200019D0FFF711FD20883CF08CFC070010D090
:101030002288616800F0CDFE2088009028783B4629
:101040004A4641463CF000FD00280CBF4FF0FF36F9
:101050000026FFF703FDFFF701FD03B03046BDE8B2
:10106000F08303B04FF0FF30BDE8F083002812BFDB
:1010700000294FF0FF30704770B516460D46044604
:10108000FFF7E2FCC4E90456FFF7E8FC002070BD5E
:1010900000207047002070470020704710B50446BC
:1010A00090F83000062884BF4FF0FF3010BD90212B
:1010B000034800F0B6FF204600F08AF9002010BD7A
:1010C0000024001008020010150D020800207047CF
:1010D0000020704710B5D0F88C1000291CBFD0F844
:1010E0009010002908D0D0F8941000291FBFD0F824
:1010F00098000028002010BD06A14FF0E100FFF786
:1011000045FB4FF0FF3010BD10B500F095F8002002
:1011100010BD00006970616C5F6574685F68696428
:101120005F696E697428293A206D697373696E6707
:10113000206574682066756E6374696F6E73000055
:10114000A94890F82200012818BF704700202FF00E
:101150009BBF10B504464FF4E071A44800F061FF56
:10116000A34894F82010C180A249626AB2FBF1F250
:10117000028194F821200270A26AB2FBF1F1417061
:10118000002010BD9848D0F89C00002808BF704788
:10119000004700291CBF002070472FF0D3BF10B5B7
:1011A000954A84B09069D2E90812CDE902128E4ABC
:1011B0000090907A8DF8000090480190904890F847
:1011C00003C0818883784FEA0C6441EA1C214FEA0E
:1011D000134C44EA034341EA0C0490F801C0007840
:1011E00043EA0C2344EA1C611843CDE90201D2F81A
:1011F0008C10684688477E49487104B010BD7A4912
:10120000D1F89810084710B5774CD4F89000804773
:10121000D4F88800002808BF10BDBDE81040004782
:1012200010B5714CD4F88400002818BF8047D4F85A
:101230009400BDE8104000476D4902694A61808A08
:10124000088300207047684991F82C10012918BFC5
:10125000704739F07DB8654A0021664BC2F8C0116D
:10126000C2F8C411C2F8C811C2F8CC11C2F8D0112A
:10127000C2F8D411C2F8D811C2F8DC11C2F8E011DA
:1012800042685B49B3FBF2F290F82D00488192B2BC
:101290004CF6CD405043800C8870002070470628E3
:1012A00006D2584901EB4011F030C0B2FFF76EBAD8
:1012B00055A1E020FFF76ABA10B536F0FFFD4A4CA1
:1012C00094F82C00012808BF36F00AFE94F82F008D
:1012D000012808BF36F02CFE94F82200012818BF20
:1012E00010BD0020BDE810402FF0CEBE10B53AF082
:1012F000C9FE3D4890F82C00012818BF10BDBDE87C
:1013000010403AF017BF2DE9F041384D0026044651
:10131000C5F8E461C5F8E861C5F8EC61C5F8F061AD
:10132000C5F8F461C5F8F861C5F8FC61C5F800625C
:10133000C5F80462C5F80862C5F80C62C5F8106209
:10134000C5F81462C5F818624FF4C05105F508706D
:10135000C5F81C6200F065FE05F5C057C022C7F84D
:101360002862C7F82C62A169C5F8E411E169C5F8E3
:10137000EC1105F5F271A8230A734B738E734FF0CD
:10138000FE0C81F80FC00A744B748E7481F813C080
:101390000A714B71184A8E7181F807C0D2E90012A8
:1013A000C7E9881212480121124AC17021890161DE
:1013B0006168B2FBF1F18181C6810020BDE8F08156
:1013C000094991F82F10012918BF704739F000B86A
:1013D00010B504464821124800F023FE044894F852
:1013E00030100171002010BD28230010FC250010D2
:1013F0003C03001040420F0090E5050898E5050801
:1014000050030010B8E50508756E6B6E6F776E209F
:1014100073797374656D206572726F7200000000DD
:101420002C40001000487047B842001070B5A0FB77
:101430000140B4F1805170F1000024BF002070BD64
:10144000204600F0F0FE05001CBF214600F0C7FD5D
:10145000284670BD70B516460D46041F002808BF0B
:1014600070BD002E1CBF05F10C00AFF300802B46B1
:101470005868002818BFA04238BF0346F8D319683F
:10148000CA18A24218BF5C6003D122681C461144EE
:10149000196021680A19824218BF606004D142684D
:1014A0006260006808442060002E1CBF05F10C003B
:1014B000AFF3008070BD10B5044600F021FE016856
:1014C0002046BDE810400122C4E70844401E491EE2
:1014D000884370470821001DF7E72DE9F0410F46CA
:1014E0008046041F00F00CFE066807B3B8F1000F39
:1014F000384622D0FFF7EEFFB84205463CBF002039
:10150000BDE8F08106F10C00AFF300802268AA422A
:1015100038BF314615D3511B082931D36019002239
:1015200040F8041B31462560FFF794FF28E0404651
:10153000FFF7C1FF0020BDE8F081BDE8F04100F0F9
:1015400072BE4868002818BFA04238BF0146F8D3D1
:10155000131983421BD103681A44954217D8531BB1
:10156000082B0AD343686219536023680068184443
:10157000401B106025604A6002E0226040684860BD
:1015800006F10C00AFF30080201DBDE8F0810022C1
:101590003146384600F006FE05000AD04146206874
:1015A000021F284600F09CFC00223146201DFFF758
:1015B00051FF06F10C00AFF300802846BDE8F08132
:1015C00053EA020C00F069802DE9F04B4FF0000661
:1015D000002B1FBFB3FA83F503FA05F424FA05F6CE
:1015E0005E4012BF1643B2FA82F502FA05F4C5F165
:1015F00020051EBF22FA05FC44EA0C04203556EAF9
:10160000044C4FEA144418BF641C4FF000084FF01C
:101610000009904271EB030C39D3002919BFB1FACC
:1016200081F701FA07F6B0FA80F700FA07F6C7F17A
:1016300020071EBF20FA07FC46EA0C062037B6FB3F
:10164000F4FCA7EB0507103F07F01F0BCBF12006BA
:101650002CFA06F60CFA0BFB44BFB3460026202FEB
:10166000A4BF5E464FF0000B5BEA060C08BF4FF0CC
:10167000010B19EB0B0948EB0608ABFB027C06FBE0
:1016800002CC0BFB03CCC01B71EB0C01C1E70B467A
:10169000024641464846BDE8F08B13B5084318BFE3
:1016A0004FF0FF300146AFF30080BDE81C407047AB
:1016B0000FB41CB5084B06AA7B44694600900598F8
:1016C00001F06DF804460020694601F07BF82046E1
:1016D0001CBC5DF814FB0000091100000FB41CB520
:1016E0000C0007AA009007D04142A14202D3204437
:1016F000401E01E04FF0FF30074B7B4469460190EC
:10170000069801F04CF80021002C01D0009A1170CD
:101710001CBC5DF814FB0000D110000070B504463D
:1017200085690068C10601D5302600E02026C00783
:1017300007D070BDD4E9012130469047206A401C93
:1017400020626D1EF6D570BD70B5044685690078BF
:10175000C00707D170BDD4E9012120209047206A3D
:10176000401C20626D1EF6D570BD70B50C46054656
:10177000012A05D02878800600D5EA69002302E016
:10178000012305E05B1C934202D2E05C0028F9D102
:10179000A869E618C01AA861286A18442862284671
:1017A000FFF7BCFF04E0D5E9012114F8010B9047D5
:1017B000B442F8D32846FFF7C7FF70BD2DE9F041CA
:1017C0000646002410687529314616A510D0AFF3DF
:1017D0000080002802DA404213A507E031688A073A
:1017E00001D512A502E0490704D511A5012401E0A5
:1017F000AFF3008000210A2206F1240709E0B0FBC4
:10180000F2FCB0FBF2F302FB1C00303078541846B7
:10181000491C0028F3D123462A463046BDE8F04152
:1018200000F050BD000000002D0000002B00000063
:10183000200000002DE9F0418046D21D22F0070271
:101840000025D2E90002F52915A614D0011E72F177
:10185000000106DA0023D0EB030063EB020211A6BD
:1018600008E0D8F800108B0701D50FA602E0490761
:1018700001D50EA601251146002408F1240704E035
:1018800000F0DBFC30323A55641C50EA0102F7D11B
:101890002B46324621464046BDE8F04100F012BDDD
:1018A000000000002D0000002B00000020000000C0
:1018B000F0B40D460188090502D51B4C7C4402E0BA
:1018C000194C7C440E34002100F1240608E002F09B
:1018D0000F071209E75D42EA03721B097754491C9E
:1018E00052EA0307F3D1224604780023240704D5E3
:1018F000702D02D009B102231132F0BC00F0E2BC1D
:1019000070B504460D4621461068AFF300800246CC
:1019100029462046BDE870400023C9E7D21D22F0C9
:101920000703D3E90023C3E78AD303002DE9F05F5F
:10193000894604464FF0000ADFF874B1FB44C0F852
:1019400020A02046E1688847002874D0252806D0CA
:10195000D4E901219047206A401C2062F1E700266B
:101960005F462046E16888472028054607DB312D81
:1019700005D2781910F8200C08B10643F1E7B0073A
:1019800001D526F00406C4F81CA00027C4F818A04E
:101990002A2D09D028462FF0D8F838B304EB870851
:1019A000303DC8F8185019E059F8041B204604EBE4
:1019B00087029161E1688847012F054618D1E069E7
:1019C000002820DA26F020061DE0D8F8180000EBE9
:1019D000800005EB40003038C8F818002046E16868
:1019E000884705462FF0B1F80028EED1012F0AD024
:1019F0002E2D08D12046E16888477F1C0546022F1E
:101A000046F02006C4DBA069002803DA404246F015
:101A10000106A061F00701D026F010066C2D0BD056
:101A2000682D09D04C2D39D06A2D35D0742D35D084
:101A30007A2D33D016E038E0E1682F4620468847FB
:101A4000B842054609D16C2F26D04FF48060E1687A
:101A5000064320468847054604E06C2F1AD04FF411
:101A6000807006430DB3A5F14100192802D8203536
:101A700046F400664A462946204626604E46FEF752
:101A80002CFC80B101280BD0F61D26F0070000F1D8
:101A9000080956E74020E4E78020D8E70020D6E791
:101AA00006F104094DE7284652E7206ABDE8F09F99
:101AB00032D303000FB400B58DB010A90990009186
:101AC0000B904FF0FF300A9000200C9006487844AD
:101AD0000690064878446A4607900F9909A800F0D6
:101AE000A9FE0DB05DF814FB830D00009B0D0000F6
:101AF0002DE9FF5F1D464FF0FF3B91464FF0000878
:101B00005F46D5E90146A96901987F1C8847296A83
:101B1000824688470028F6D1BAF1FF3F0CD0002E4C
:101B200024F4C06419DD600614D5BAF12B0F09D076
:101B3000BAF12D0F0ED103E0584604B0BDE8F09F76
:101B400044F48064A96901987F1C8847761E824608
:101B5000002E02DDBAF1300F03D0B9F1000F26D00C
:101B600032E0A969761E01987F1C44F4007488470E
:101B7000002E824605DDBAF1780F06D0BAF1580F73
:101B800003D0B9F1000F10D01EE0B9F1000F02D060
:101B9000B9F1100F18D1A969761E01987F1C24F4A1
:101BA000007488478246102002E0082000E00A20E6
:101BB000814609E0A96908FB0908761E01987F1C87
:101BC00044F4007488478246002E05DD494650469D
:101BD00000F01BFE0028EDDAE96901988847A005AE
:101BE00002D46FF00100A8E7E00725D1600613D505
:101BF000600502D5C8F1000000E0404629680A1DD2
:101C00002A600968220501D5087015E0220701D570
:101C1000088011E008600FE02868011D2960006855
:101C2000210502D580F8008006E0210702D5A0F842
:101C3000008001E0C0F8008038467EE72DE9FF5FB4
:101C40004FF000089946144646469169D2E901A72B
:101C5000DDF838B001988847054659EA0B0005D0F1
:101C600009E0A1690198761C88470546216A284643
:101C700088470028F5D1681C03D05FEACA7005D0F8
:101C800015E04FF0FF3004B0BDE8F09F2068011D63
:101C90002160D0F800800AE05FEACA7001D108F83C
:101CA000015BA169761C01987F1E88470546002FBD
:101CB0001ADD681C18D0B9F1000F0DD0E81705EB3C
:101CC000D060421120F01F0059F822102A1A01207A
:101CD00090400142E0D107E0BBF1000FDCD1284683
:101CE000216A88470028D7D0E16901988847BBF16D
:101CF000000F07D1002E05DD5FEACA7002D1002176
:101D000088F80010A068B84203DDBBF1000F03D0D3
:101D100017B16FF00100B6E73046B4E710B5002008
:101D200000F0CFFDFEF75CFABDE81040012000F0A6
:101D3000E1B90B460146184600F0ACBD40EA01038C
:101D400010B59B070FD1042A0DD310C808C9121F64
:101D50009C42F8D020BA19BA884201D9012010BD9E
:101D60004FF0FF3010BD1AB1D30703D0521C07E06B
:101D7000002010BD10F8013B11F8014B1B1B07D1CF
:101D800010F8013B11F8014B1B1B01D1921EF1D140
:101D9000184610BD10B5431C02E010F8011B71B1CC
:101DA0008107FAD14FF0013202C88C1A8C4314EA31
:101DB000C211F9D0C01A0A0603D0C01E10BDC01A45
:101DC00010BD0A0401D0801E10BD0902FCD0401EC7
:101DD00010BD032A40F2308010F0030C00F0158093
:101DE00011F8013BBCF1020F624498BF11F801CB1E
:101DF00000F8013B38BF11F8013BA2F1040298BF83
:101E000000F801CB38BF00F8013B11F0030300F0EC
:101E10006780083AC0F0088051F8043B083A51F84E
:101E200004CBA0E80810F5E7121D5CBF51F8043B95
:101E300040F8043BAFF30080D20724BF11F8013B08
:101E400011F801CB48BF11F8012B24BF00F8013B6A
:101E500000F801CB48BF00F8012B7047431A28BF98
:101E60009A427FF6B6AF10441144032A40F226800E
:101E700010F0030F1EBF11F8013D521E00F8013D86
:101E800010F0030F7FF4F6AF11F0030300F06D8044
:101E9000083AC0F00B8051F8043D083A51F804CDDF
:101EA00040F8043D40F804CDFFF7F3BF121D5CBFBE
:101EB00051F8043D40F8043DAFF30080D20724BF41
:101EC00011F8013D11F801CD48BF11F8012C24BFD4
:101ED00000F8013D00F801CD48BF00F8012C704723
:101EE00010B5203AC0F00B80B1E81850A0E81850A7
:101EF000B1E81850A0E81850203ABFF4F5AF5FEAF7
:101F0000027C24BFB1E81850A0E8185044BF18C99B
:101F100018C0BDE810405FEA827C24BF51F8043B42
:101F200040F8043B08BF7047D20728BF31F8023B96
:101F300048BF11F8012B28BF20F8023B48BF00F82A
:101F4000012B7047431A28BF9A427FF6C9AF10444D
:101F5000114410F0030F1EBF11F8013D521E00F88E
:101F6000013D10F0030F7FF4F6AF103AC0F00A8085
:101F700010B531E9185020E91850103ABFF4F9AF04
:101F8000BDE81040530724BF31E9081020E90810CC
:101F900044BF51F8043D40F8043D12F0030F08BF60
:101FA0007047D20728BF31F8023D48BF11F8012C15
:101FB00028BF20F8023D48BF00F8012C704702F00E
:101FC000FF0343EA032242EA024200F00AB802F0A9
:101FD000FF0343EA032242EA024200F024B84FF032
:101FE00000020429C0F0128010F0030C00F01B80E6
:101FF000CCF1040CBCF1020F18BF00F8012BA8BFF4
:1020000020F8022BA1EB0C0100F00DB85FEAC17CB7
:1020100024BF00F8012B00F8012B48BF00F8012B6A
:1020200070474FF0000200B513469446964620399B
:1020300022BFA0E80C50A0E80C50B1F12001BFF481
:10204000F7AF090728BFA0E80C5048BF0CC05DF8E7
:1020500004EB890028BF40F8042B08BF704748BF35
:1020600020F8022B11F0804F18BF00F8012B7047A9
:1020700030B44FF0013C50F8042B51F8043BCCFA3B
:1020800052F4D51A20D1FCB950F8042B51F8043B76
:10209000CCFA52F4D51A17D1B4B950F8042B51F830
:1020A000043BCCFA52F4D51A0ED16CB950F8042B7B
:1020B00051F8043BCCFA52F4D51A05D1002CDAD0F1
:1020C00030BC4FF00000704729BAB1FA81F111F02D
:1020D0001801D1F120008440F2D1CA40CB4012F067
:1020E000FF0213F0FF0330BCD01A704770477047EF
:1020F0007047000001491820ABBEFEE72600020031
:1021000010B5FFF78FF9083010BD7047704738B52C
:1021100004460A4600206946AFF30080002808BF45
:1021200038BD02460099204600F0F6FB012038BD7C
:10213000012000F0C7BEF8B5AFF3008005460020CF
:102140000C46102000BF0646A819A0420DD9324601
:1021500069460020AFF30080070008BF00F0B2FE20
:102160000098A04218BF0546C419FFF7C9FF0560D3
:102170000746F01D20F007004619284600F0BCFB7A
:10218000B44208BFF8BDA21B31463868BDE8F8402C
:1021900000F0C2BB0844401E491E88437047082116
:1021A000001DF7E72DE9F04117460E460446FFF7FC
:1021B000F6FFA042054633D9002F1CBF06F10C00E4
:1021C000AFF3008030467468F4B12168A94217D398
:1021D00005F1080291423CBF6168416007D3626823
:1021E00061194A602268521B0A6041602560002F15
:1021F0001CBF06F10C00AFF30080201DBDE8F0818C
:1022000020466468002CE0D129463046FFF77FFF66
:102210000028D7D1002F1CBF06F10C00AFF30080BF
:102220000020BDE8F08110B50446FFF769FF0168A2
:102230002046BDE810400122B4E730B5B0F10A02F3
:1022400071F100034FEA900E4EEA817EB0EB0E0072
:1022500061EB91014FEA101E4EEA017E10EB0E0079
:1022600041EB11114FEA102E4EEA016E10EB0E00F9
:1022700041EB11214FEA104E4EEA014E10EB0E00D9
:1022800041EB1141401841F100014FEAD00040EA12
:1022900041704FEAD1014FEA810444EA907410EB97
:1022A000800544EB01046D1944EB0404521BA34167
:1022B0004FF0000348BF0A3200D530BD401C41F149
:1022C000000130BD2DE9F0470D469946924604467F
:1022D00000F124080168880604D5E06921F01001A6
:1022E000216000E00120A84201DD471B00E000273B
:1022F000A1697A1902EB0900081AA0612078C006CA
:1023000002D42046FFF70AFA002608E0D4E90121AA
:102310001AF806009047206A401C761C20624E4541
:10232000F4DB2078C0060AD52046FFF7F7F906E06F
:10233000D4E9012130209047206A401C2062381ED9
:10234000A7F10107F4DC07E0D4E9012118F8050042
:102350009047206A401C2062281EA5F10105F3DC8D
:102360002046FFF7F1F92078000602D50220BDE8EB
:10237000F0870120FBE72DE9FF4F0C461E464FF08A
:10238000FF378BB0D2E90001DDF860800A908A4601
:10239000C1F30A5505B93D46002108464FF000003B
:1023A000BAF1000F00F4400005DA00EB80004FF4B2
:1023B000400101EA50004FEA9059B9F1010F00DDE8
:1023C000B9460A9850EA4A000ED044F61050A5F2D9
:1023D000FF3545432F14B8F1000F1ED07542291E5A
:1023E0001EDDC9F100021CE0B8F1010F4FF0000042
:1023F00001D0302103E0F24305E02154401CB042FB
:10240000FBDB30460022002121540B99C1F80880E3
:10241000C1E900200FB0BDE8F08FBD1B6D1CDEE7E9
:102420004A4600DA694206A800F09CFC06AB93E835
:10243000070003AB83E8070050460A992CF0BAF96D
:102440008DE80700A0F500501F3800900398002D7C
:102450000ADD42F21F014A460844002303A9039003
:1024600068462CF023FC09E0A0F500504A461F38CE
:10247000002303A9039068462CF02DFC8DE807008B
:102480000004000C03D04FF0FF30410800E010467C
:10249000B8F1000F03D00022009215461EE0751E11
:1024A00005D4FFF7CAFE303262556D1EF9D5B3462A
:1024B0000122084302D000227F1C04E0207830284B
:1024C00001D100227F1E002A099784D01DE0112D22
:1024D00007DAFFF7B2FE303262556D1C50EA010296
:1024E000F5D1084302D00098C8B10EE00021681E63
:1024F00005E0235C625C63542254401E491C814207
:10250000F7DBAB46A81B401E0990002004F80B0027
:102510000B98099AC0F80880C0E9002B7AE71126C9
:102520004FF0000857E72DE9F04F88460446D21DCA
:1025300022F0070191B0D1E90001CDE90A012EF0A6
:10254000C8FA02460B98C00F01D02D2007E0206882
:10255000810701D52B2002E0202101EAC000032AD7
:10256000099001D0072A05DB03464146204600F0CA
:10257000FFF90BE12078800601D5E06900E0062034
:10258000B8F1650F814606D0B8F1660F18D0B8F1E2
:10259000670F70D131E00020B9F1110F009001DB1D
:1025A000112301E009F101030AAA01A90CA8FFF710
:1025B000E2FEDDE90C70002609F10105834647E0E3
:1025C00001204B4600904FF000470AAA01A90CA831
:1025D000FFF7D1FEDDE90DB00C995D46002610B97C
:1025E00009F101000D18B9EB050003D4C0F1FF3665
:1025F00009F10105A5EB09002BE0B9F1010F01DAA2
:102600004FF001090020B9F1110F0090484601DD9B
:10261000112300E003460AAA01A90CA8FFF7ABFEAC
:10262000DDE90C704D4600268346207800070AD469
:10263000AB4500DA5D4601A8012D04DD411911F812
:10264000011C302907D04F4502DA17F1040F04DAD4
:10265000012082460FE06D1EEEE7002F02DCED1B2D
:102660003E4403E0781CA84200DD7D1CB81B00F14D
:10267000010A4FF000472078000703D4AA4501DB88
:102680004FF0FF3A0021B7F1004F0DF143088DF8EC
:10269000431024D002202B23002F01DA7F422D2368
:1026A0000A21021EA0F1010000DC5FB197FBF1FCE2
:1026B00097FBF1F201FB1C7C17460CF1300C08F87B
:1026C00001CDEEE7A8F1010003702188090501D5CD
:1026D000452100E06521A0F1010800F8011C0998DE
:1026E0000FA9A1EB0807FF1D00B10120411901EB63
:1026F000EA70A1693844081A401EA0612078C0061B
:1027000002D42046FFF70AF8099828B1D4E901213C
:102710009047206A401C20622078C00622D52046BF
:10272000FEF7FCFF1EE0002E04DBB34502DD01A82E
:10273000805D00E03020D4E901219047206A401CF0
:102740002062761CAAF101005FEA000A0AD100F0BB
:10275000C9F8C0680168405CD4E901219047206A4B
:10276000401C2062281EA5F10105DCDC07E0D4E94D
:10277000012118F8010B9047206A401C2062381E86
:10278000A7F10107F3DC2046FEF7DEFF032011B0BE
:1027900041E6000001694A1C02610878704700B5F3
:1027A0008FB0CDE901310021059105497944CDE98A
:1027B000031011466846FFF7B9F80FB000BD0000DE
:1027C000E5FFFFFF0A6802F8010B0A607047D1E9D4
:1027D00000239A4202D2531C0B601070704710B550
:1027E000436913B1AFF3008001E0FEF7BEFF0120A3
:1027F00010BD127800F124010A7000224A700122F3
:10280000EDE711684FF0FF32E9E73A2800D230389F
:1028100020F02002412A01D3A2F13700884201D3DF
:102820004FF0FF30704700000268114413780160D8
:1028300018467047D160054979445161044979448B
:10284000116200211161114600F0D2B8EDFFFFFFC7
:102850001B010000426842B1016811F8013B23B13D
:10286000521EC0E90012184670470121C160881E3F
:10287000704742685AB1C368016843B983688B42A4
:1028800005D0491E521CC0E90012002070474FF0CD
:10289000FF3070472DE9F041074615460E461020DF
:1028A000FFF7C1FC04000AD06760C4E9026500F0CC
:1028B0001EF80168216004600020BDE8F08101205D
:1028C000FBE710B500F0E6FABDE8104000F0DDBA15
:1028D0007047000010B500F005F8001D10BD00BFE6
:1028E000A1B2030010B5FEF79DFD203010BD10B55C
:1028F000FEF798FD383010BD00210160C0E90110DD
:102900000C300CF02CB910207047801A0844401E7F
:10291000491E88431044704770B5144605468C46DE
:102920004368002B18BF634538BF1846F8D30268C8
:102930001044604508D06646604604220821FFF72F
:10294000E4FF811B8446641A2946CCF80040BDE8A8
:10295000704000220CF10400FEF77CBD10B5044667
:10296000FFF7B8FF0068005D00F0010010BD000037
:102970002DE9F0411F46044603260168072A01F4A9
:10298000006004DB08B116A505E016A503E008B158
:1029900015A500E015A521F010002060A069C01E5B
:1029A000A0610FB1401EA0612046FEF7B7FE4FB1F7
:1029B000D4E9012138469047206A401C2062C01C9F
:1029C000206206E0206AFAE7D4E9012115F8010B3C
:1029D0009047761EF8D22046FEF7B6FEBDE8F0819D
:1029E0004E414E006E616E00494E4600696E6600B3
:1029F0002DE9F34F4FF0000A0C4656468DB00120EA
:102A00000C9001F10C000B9062690B98012190472A
:102A1000051E2DD0252D2CD0216A8847C0B16269B2
:102A20000B9801219047216A88470028F7D16269F5
:102A3000411E0B98904700E0761CA1690D988847CD
:102A4000216A88470028F7D1E1690D988847DBE7BC
:102A5000A1690D988847A842074601D1761CD3E7A3
:102A6000E1690D9888477F1C02D1BAF1000F6FD041
:102A70006BE162690B9800273D46394690472A284A
:102A800004D162690B98012190470125DFF8D082BB
:102A900062690B9801219047A0F130010A290AD2FE
:102AA0004745E5DC07EB870100EB4107303FDFD40A
:102AB00045F01005ECE7E90601D46FF000476C28FB
:102AC0000AD04C2814D0682815D06A280DD0742854
:102AD0001CD07A281AD01DE062690B98012190471A
:102AE0006C2802D045F0040514E045F002050DE025
:102AF00045F020050AE062690B980121904768289B
:102B000002D045F0080505E045F4006562690B98C0
:102B100001219047C4E9015765283DD019DC5828A8
:102B20007AD00CDC452837D004DC252826D0412873
:102B30009ED131E046282FD0472899D12CE05B2840
:102B400077D0612828D063287CD0642823D15AE02C
:102B5000F6E06F2848D008DC66281DD067281BD017
:102B6000692821D06E2816D127E0702845D0732817
:102B700068D0752847D078280DD14DE0A1690D980F
:102B80008847252805463FF469AFE1690D988847D5
:102B90006D1C3FF46AAFD8E00D9923466A466FF08A
:102BA0000100AFF30080C5E045F0400023464FF040
:102BB00000026060A80736D43EE0E8077FF447AF24
:102BC0002068011D21600068290501D506701BE7FA
:102BD000290701D5068017E7A90703D5F117C0E932
:102BE000006111E706600FE745F0400023464FF013
:102BF00008026060A80716D41EE040F60E0125EA20
:102C00000100606016E045F0400023464FF00A02E4
:102C10006060A80707D40FE045F040006060A80797
:102C200008D5234610220D996FF00100AFF3008004
:102C300080E007E0102223460D996FF00100FEF7B7
:102C400057FF77E04FF0000963284F46C8464B46D0
:102C5000CB4602D05B2806D038E0E80601D401203C
:102C6000A060012732E06269D4F80CB00B98012112
:102C700090475E2807D14FF0010949466269D4F8B0
:102C80000CB00B989047216939B900210A4603AB73
:102C900043F82120491C0829FADBD8B3216949B33C
:102CA00008F1010862690B98012190475D28F4D171
:102CB000B9F1000F09D0002003A951F82020D24318
:102CC00041F82020401C0828F7DB03AB20690028CE
:102CD00020794FEA40701ED05B462246CDF8008036
:102CE000CDE901970D9900286FF0010020DAAFF3CC
:102CF00000801FE0C11703AA00EBD1614B1121F046
:102D00001F0102EB8302411A13680120884003432C
:102D10001360C7E719E00D99224600286FF0010003
:102D2000009702DAAFF3008004E0FEF787FF01E0CE
:102D3000AFF3008000280ADA401C06D10C9820B1BD
:102D40004FF0FF300FB0BDE8F08F5046FAE7E907CB
:102D500001D10AF1010A064400200C9054E600005B
:102D6000CCCCCC0C2DE9F047814616468AB03548CC
:102D700078440DC88DE80D0032487844801C03ACBF
:102D80000DC884E80D0041F69B300844372190FBC4
:102D9000F1F290FBF1F5A5F1800501FB12041B3C5B
:102DA00002D56442012000E00020DFF898A08046B0
:102DB0000027FA44AAF1BE0A0EE0E0070AD0324624
:102DC000684607EB470101230AEB81012BF083FFE3
:102DD0008DE8070064107F1C002CEED1194F7F4452
:102DE000AE3F19E0E80715D007EB04100DF1180A03
:102DF00090E80E008AE80E00C068F04201D19819F0
:102E000008903246012306A903A82BF064FF03AB08
:102E100083E807006D10641C002DE3D14FF001031F
:102E200032466946B8F1000F03A802D02BF03EFFEE
:102E300001E02BF050FFC9E90001C9F808200AB0F1
:102E4000BDE8F0878CBF03002DE9F0410646FFF78F
:102E50004EFD8046454613E016B1E068B0420ED103
:102E600020682860D4E90101D8F80070884720461E
:102E7000FEF721FBD8F80000B842EBD100E0254670
:102E80002C68002CE8D1BDE8F081002801D0FFF7C4
:102E900031B9704710B5002102A000F048F80120B8
:102EA00010BD0000534947414252543A2041626EDE
:102EB0006F726D616C207465726D696E6174696F9B
:102EC0006E00000010B500F04BF8BDE81040FFF7B1
:102ED000DCBF7546FEF7A6FAAE46050069465346C6
:102EE00020F00700854618B020B5FDF715FBBDE8BA
:102EF00020404FF000064FF000074FF000084FF061
:102F0000000BAC46ACE8C009ACE8C009ACE8C009AD
:102F1000ACE8C00921F007018D46704710B50446A2
:102F2000AFF300802046BDE81040FDF708BA70B549
:102F300005460C460A2000E06D1C00F039F835B15A
:102F400028780028F8D102E0641C00F031F814B1B0
:102F500020780028F8D1BDE870400A2000F028B899
:102F600010B5012805D0002103A0FFF7E0FF0120E4
:102F700010BD09A1F8E7000053494752544D454D93
:102F80003A204F7574206F662068656170206D650A
:102F90006D6F7279000000003A2048656170206D05
:102FA000656D6F727920636F7272757074656400FD
:102FB00008B569468DF800000320ABBE08BD0420AB
:102FC0007146084202D0EFF3098001E0EFF3088078
:102FD000816901F076B80A2024F075BA04207146A0
:102FE000084202D0EFF3098001E0EFF30880816925
:102FF00001F06BB88C4645F2D051C1F200010B686C
:1030000001461A7C58689B6A4A439A5C8C2312FBDF
:103010000300624602F00EB92DE9F04F9DB045F273
:10302000D0510546C1F2000100780F68032815DD74
:10303000042826D00C2824D00F2840F0FC8305F16A
:103040001C000FF006FAA97F0B90022005F1340B4B
:1030500079703970B97087F849002BE001281BD0CE
:10306000032840F0E883281D0FF0F3F9A9790B90AD
:10307000022079703970B97087F8490005F11C0B8E
:1030800018E005F10C000FF0E4F9A97B0B907970C2
:103090003970B970022009E005F10C000FF0D9F980
:1030A000A97B0B90012079703970B97087F84900BD
:1030B00005F1240B00290C9700F0C580002601249F
:1030C0004FF000084FF0000A4FF000095FFA89F551
:1030D0000B9829460FF0BBF9817801F0E001202917
:1030E00002D1411C06E000BF017901F0E001202976
:1030F0001AD1C11C097801390C2915D8DFE801F073
:1031000007141E2614142E45505807656D00F96CDF
:103110004C2309FB031209FB03F3CC5482F83D60F6
:1031200065E000BF00000000F96C4C2309FB0312AE
:1031300009FB03F382F83D40CC5458E0F96C4C2372
:1031400009FB031C09FB03F303224DE0F96C4C233C
:1031500009FB031C09FB03F3042245E0F96C9827E3
:103160004FEA490209FB071301324FF04C0C09FBEF
:1031700007F783F83D6002FB0C13CC550C9F02FB54
:103180000CF28C5483F83D6031E0F96C002241442C
:103190008B188C544C32E42A83F83D60F8D126E039
:1031A000F96C4C2309FB031C09FB03F309221BE008
:1031B000F96C0022514400BF8B188C544C32B2F58C
:1031C000987F83F83D60F7D111E0F96C4C2309FB3F
:1031D000031C09FB03F30C2206E0F96C4C2309FBEA
:1031E000031C09FB03F30D22CA548CF83D60F96AF5
:1031F00097F849204FF4987309FB0311012A8A704C
:1032000006D0022A40F01783007800F01F0003E088
:103210000078C0F34300013848700FF0C6FC29461F
:103220000FF0EEFC396B4FF41A7209FB021109F131
:103230000109C1F8FC0178780AF5987A814508F10E
:10324000E408FFF443AF45F2D050C1F20000D0F8DB
:1032500000900020002100BF1BF80020CBB29A4252
:103260000B4688BF1346FF2A00F1010018BF19461C
:103270000428F1D1D9F84440481C0BF1C4050026BC
:1032800089F80200002700BFE8590EF05FFF54F8EC
:10329000260038440437182F80ED000AF4D1013697
:1032A000042E05F11805EDD1D9F838000BF14401D1
:1032B00006F0BAFCD9F834000BF18405294606F073
:1032C000B3FCD9F83C00294606F0AEFCD9E90F2A38
:1032D0000DF1340800234146002700BF52F82700B3
:1032E0005AF82760002500BF445973514C510435EA
:1032F000102DF9D10137042F01F11001EED100207A
:103300004FF07E515AF80020115004301028F9D1A6
:103310001FED7C1A08F1100C00250126BFEE000AF3
:103320004346C6464FF0FF327146B0EE412A2C4666
:1033300091ED003A103123EE033AB4EE423AF1EE49
:1033400010FAC4BFB0EE432A22460134042CEFD158
:10335000501C59D05AF82560AA4210D05AF82200C1
:1033600008EB0211002200BF8C589F589C508F50D0
:103370008458B758B45087500432102AF4D108EB5F
:10338000051000EB850090ED002A624680EE022ACF
:103390002C4600BF013408EB041000EB850090EDD3
:1033A000003A5AF8241022EE033A0027D81990ED7B
:1033B000004AD01990ED005A23EE044A34EE054A33
:1033C00080ED004AF01990ED004AC81990ED005ABE
:1033D00023EE044A043734EE054A102F80ED004AEC
:1033E000E4D1032C02F11002D4D1022D05F1010524
:1033F0004FF0000638BF01260EF1140E10330CF109
:10340000100C032D8ED101E0F00762D108F1200CE1
:1034100008F130034FF0030E08EB0E1000EB8E00A6
:1034200090ED001A5AF82E5080EE011A6246764648
:103430003446013E08EB061000EB8E0090ED002AAA
:103440005AF8261021EE022A002000BF1F1897ED1F
:10345000003A171897ED004A22EE033A33EE043A89
:1034600087ED003A2F1897ED003A0F1897ED004AB4
:1034700022EE033A043033EE043A102887ED003A86
:10348000E4D1012CA2F11002D2DCBEF1010EACF1AC
:10349000100CA3F11003BFD80022B7EE000A00BF42
:1034A00008EB021000EB820090ED001A5AF822009F
:1034B00080EE011A002100BF431893ED002A043169
:1034C00021EE022A102983ED002AF5D10132042AC7
:1034D000E6D145F2D058C1F20008D8F800500B9F51
:1034E000002000BF1BF80010FF2903D06A6A1154A6
:1034F0002A6A115401300428F4D16878E8B1002414
:10350000002600BFE1B238460EF0A1FF407820F05F
:1035100051FC002808BF0120F1B250FA86F000BF2C
:103520001BF80420AB6A01365A54F1B28842F7D82E
:10353000697801348C420646E4D3384600210024E1
:103540000EF085FF407820F035FC002808BF0120F0
:103550006978AA782874484328704AB1002000BFCF
:10356000E9680C54A97801308842F9D328780C46D0
:10357000000610D0002000BFA96AEA68095CEB6968
:10358000575C53F821307E1C5654D85529780130A9
:103590008842F1D3AC784FF0000044B1002100BF65
:1035A000AA685054AA7801319142F9D3104669783B
:1035B00081B10020696AAA68095CAB69575C53F85D
:1035C00021307E1C5654D855697801308842F1D399
:1035D000A87800E0002140B100200021AA685054E2
:1035E000AA7801319142F9D3697879B1002000BFFE
:1035F000296AAA68095C6B69575C53F821307E1C04
:103600005654D855697801308842F1D399F80210A0
:10361000002941D0D9F804008C2251430BF1060255
:10362000002300BF17789678C7F30115C718BD634C
:1036300015788C33AD09FD6312F8015C994205F0F1
:1036400003057D6312F8015CC5F381053D6412F842
:10365000015CC5F301157D6412F8015C4FEA951514
:10366000BD64157805F00305FD641578C5F3810583
:103670003D6512F8025C87F86560C5F3400587F880
:10368000625002F1060696ED000A02F11002BDEE4C
:10369000C00A87ED1A0AC5D1D8F8009099F80280BF
:1036A000B8F1000F57D0D9F804E000234FF08C0C8C
:1036B0004FF41A75012400BF03FB0CE191F865106B
:1036C000032919D002292DD0012941D1D9F8086048
:1036D000F15C00293CD0D9F81410D9F8307051F8B9
:1036E00023200021505C013110FB057080F8D94186
:1036F000F05C8142F6D32BE0D9F80860F05C38B377
:10370000D9F81400D9F8307050F82320002100BFF8
:10371000505C013110FB057080F8D941F05C8142AA
:10372000F6D315E0D9F80860F05C88B1D9F8140038
:10373000D9F8307050F82320002100BF505C0131CF
:1037400010FB057080F8D941F05C8142F6D300BFD0
:1037500001334345B0D10C980021D0F844800120BA
:10376000B7EE000A58F82120002702EB810300BFC2
:10377000B94205D193ED001AB4EE401A04E000BF3F
:1037800092ED001AB5EE401AF1EE10FA07F10107BA
:1037900018BF0020082F02F10402E9D101310429E9
:1037A000E0D1002818BF4FF000080C9FB87800281F
:1037B00041D078680025002628440B900C98D7E962
:1037C00002127B6987690C9857F82670C4698819BA
:1037D0000A900C9854F826E0D0F82CC00C9841467A
:1037E000046B0C9853F82630D0F834900C9832447F
:1037F000D0F838A00C98D0F83CB00C98D0F84080A5
:103800000C98C06CCDF8208088460991CDE903C0A2
:10381000DDE90A1000970C9FCDE901E4CDE9059B95
:10382000CDF81CA001F08BF9786801364655B978BF
:103830008C358E42C0D31DB0BDE8F08F2DE9F04F1E
:1038400081B045F2D054C1F2000427688146386B3C
:103850004FF41A7609FB06000D46043000F0DEFC3A
:1038600020682946006B09FB0600603000F0D6FC9A
:1038700020682946006B09FB0600603000F0CEFC92
:1038800020684FF49874C06A05F1500109FB0400E8
:10389000883000F0C3FCF86A95F8BA1009FB040000
:1038A00003F0EEF8F86A05F19C0109FB040091ECC5
:1038B000060A03F022FD386B5FFA89FB09FB06005C
:1038C00059462A4600F0FAFE387C28B34FF04C0ADD
:1038D000002409FB0AF64FF0000800BFF96CD5F888
:1038E000982006FB001095ED2F0A2044594601F060
:1038F0000EFA45F2D050C1F20000006895ED300A92
:10390000C06C09FB0A0004F072FA387C08F1010867
:10391000804504F14C04E1D301B0BDE8F08F45F2DD
:10392000D052C1F2000212684FF41A73126B00FBFE
:10393000032003F089B845F2D053C1F200031B689D
:1039400000EE101AD3F830C04FF41A7300FB03C016
:1039500001EE102AB8EEC00AF8EEC10A01F092B9E1
:10396000F0B581B045F2D056C1F200063268044687
:10397000106B4FF41A7704FB07000D46043000F07B
:103980004DFC30682946006B04FB0700603001B035
:10399000BDE8F04000F042BC0A4645F2D051C1F209
:1039A000000109684FF49873C96A00FB0313C1B2A0
:1039B000184600F007BF45F2D052C1F2000212686B
:1039C0004FF49873D26A00FB032003F0CFBB45F29B
:1039D000D052C1F2000212684FF49873D26A91EC8F
:1039E000060A00FB032003F088BC45F2D051C1F267
:1039F000000109684FF49872C96A00FB021004F0D4
:103A0000A9B945F2D052C1F2000212684FF498737E
:103A1000D26A00FB032003F057BD000070B545F2E9
:103A2000D054C1F200042168887858B100250026DE
:103A30004868284400F010FD2168013688788C35EC
:103A40008642F5D3C86A4978BDE8704000F08CBF63
:103A5000F0B581B045F2D056C1F200063268054695
:103A6000106B4FF41A7205FB02000C4601F080F84F
:103A70003068017C91B1C06C69434C2201FB0200AB
:103A80004434002500F14C0702F04AFD316844F847
:103A90002500087C013585423846F3D301B0F0BDDE
:103AA00045F2D052C1F2000212684FF49873D26A04
:103AB00000FB032001F07EB8F0B581B045F2D0578D
:103AC000C1F2000716463A680446106B4FF41A72AA
:103AD00004FB02000D4602F085FF40B138684FF448
:103AE0009871C06A04FB0100294602F0CCFF46B180
:103AF00038684FF49871C06A04FB0100D0F8840064
:103B0000286101B0F0BD000070B545F2D054C1F29B
:103B100000042068817861B10025002640680D21ED
:103B2000284404F06DF92068013681788C358E4286
:103B3000F4D370BDF0B581B02DED048B45F2D050BB
:103B4000C1F200000468002C7AD060789FED3E9AA4
:103B500001250026B7EE008A4FF41A77A07025746D
:103B6000A06800228555206A8655A06A865560693E
:103B700050F826000670E06B616B50F8260051F893
:103B8000261000BF9642B0EE490A02F1010208BFBA
:103B9000B0EE480AA0EC010AA1EC010A042AF1D116
:103BA000606C002150F826008E42B0EE490A01F107
:103BB000010108BFB0EE480AA0EC010A0829F3D1C0
:103BC000206B06FB070000F0AAFAE0688555E06963
:103BD00050F8260006700136042EC1D100254FF49E
:103BE000987600BF606A00224555A06950F825000C
:103BF0000570206CA16B50F8250051F8251000BF0E
:103C00009542B0EE490A02F1010208BFB0EE480A3F
:103C1000A0EC010AA1EC010A042AF1D1E06A05FB3B
:103C2000060000F0D5FA0135042DDBD1002500BFD8
:103C3000E06C284400F061FF4C35B5F5187FF7D1F2
:103C4000BDEC048B01B0F0BD00000000F0B581B008
:103C500045F2D055C1F200052A68137C8BB10C46A1
:103C6000D16C58434C2200FB02100026214600F183
:103C70004C0701F09BFA28680136007C86423846E2
:103C8000F4D301B0F0BD45F2D052C1F20002126887
:103C90004FF49873D26A00FB032004F055B845F244
:103CA000D052C1F2000212684FF49873D26A00FB3E
:103CB000032004F0B2B945F2D052C1F200021268FA
:103CC0004FF49873D26A00FB032003F011BC45F255
:103CD000D052C1F2000212684FF49873D26A00FB0E
:103CE0000320883000F09ABA45F2D051C1F20001A9
:103CF00009684FF49872C96A00FB021003F000BB18
:103D0000F0B581B045F2D057C1F200073C680E46CD
:103D100005465CB913F090FB04215022012313F0F7
:103D200095FB04460028386000F0DC8004202670F3
:103D30006570A57000F08AFC606013F07DFB0421C3
:103D40000122042313F082FBA06013F075FB042111
:103D50000122042313F07AFBE06013F06DFB0421D1
:103D60000422042313F072FB606113F065FB04214D
:103D70000422042313F06AFBA06113F05DFB04210D
:103D80000422042313F062FBE06113F055FB0421CD
:103D90000122042313F05AFB206213F04DFB04218F
:103DA0000122042313F052FB606213F045FB04214F
:103DB0000122082313F04AFBA062042005F0FEFE56
:103DC0002063042005F012FFE062082000F03AFEB4
:103DD000E06413F031FB04210422042313F036FBCA
:103DE000606313F029FB04210422042313F02EFB4B
:103DF000E06313F021FB04210422042313F026FBCB
:103E0000A06313F019FB04210422042313F01EFB0A
:103E1000206413F011FB04210422042313F016FB89
:103E20000025606413F008FB04210122042313F031
:103E30000DFB616941F8250013F0FEFA042104220C
:103E4000042313F003FB616B41F8250013F0F4FA2F
:103E500004210422042313F0F9FAE16B41F8250050
:103E600013F0EAFA04210422082313F0EFFA616C3C
:103E700041F825000135042DD4D1002513F0DCFADA
:103E800004210122042313F0E1FAA16941F825007D
:103E900013F0D2FA04210422042313F0D7FAA16B01
:103EA00041F8250013F0C8FA04210422042313F07A
:103EB000CDFA216C41F825000135042DDED1002515
:103EC00013F0BAFA04210122082313F0BFFAE169C2
:103ED00041F825000135042DF2D1FFF72BFE2046D5
:103EE00001B0F0BD0024FAE745F2D052C1F2000261
:103EF0001268136A5268185C8C2310FB032003F0CD
:103F00007FBF45F2D052C1F200021268136A5268B4
:103F1000185C8C2310FB032004F03AB945F2D05111
:103F2000C1F2000109684FF41A72096B00FB02101C
:103F300000F0D5BF45F2D051C1F2000109684FF43D
:103F40001A72096B00FB021000F0D2BF45F2D0518B
:103F5000C1F2000109684FF41A72096B00FB0210EC
:103F600000F0F4BF45F2D051C1F2000109684FF4EE
:103F70001A72096B00FB021001F015B845F2D0511E
:103F8000C1F2000109684FF41A72096B00FB0210BC
:103F900001F012B845F2D051C1F2000109684FF4A6
:103FA0001A72096B00FB021001F00FB845F2D051F4
:103FB000C1F2000109684FF41A72096B00FB02108C
:103FC00000F0FCB870B545F2D054C1F2000421688D
:103FD0000A7C7AB1C96C50434C2200FB02100025C8
:103FE00000F14C0601F00BF920680135007C854298
:103FF0003046F5D370BD0000F0B581B045F2D05623
:10400000C1F200063268137C8BB10C46D16C584368
:104010004C2200FB0215002734F82710284600F038
:104020009AFE30680137007C4C358742F4D301B0EA
:10403000F0BD45F2D051C1F2000109684FF41A7287
:10404000096B00FB021004F031B945F2D051C1F206
:10405000000109684FF41A72096B10FB021003F09B
:1040600049BD45F2D052C1F2000212684FF4987374
:10407000D26A00FB032003F070BE45F2D052C1F2B9
:10408000000212684FF49873D26A00FB032004F018
:1040900067B945F2D052C1F2000212684FF498732A
:1040A000D26A00FB032003F0A6B845F2D052C1F259
:1040B000000212684FF49873D26A10FB032003F0D9
:1040C0001DBA0146082023F016BA0146062023F047
:1040D00012BA0146072023F00EBA0146092023F048
:1040E0000ABA04207146084202D0EFF3098001E0C9
:1040F000EFF308808169FFF7ECBF052023F0E3B9F7
:104100000B2023F0E0B904207146084202D0EFF3FF
:10411000098001E0EFF308808169FFF7DEBFF0B5A9
:1041200081B000270446C0F8BC70E430112104F1CE
:10413000F80604F5AE75FDF774FF30466021FDF713
:1041400070FF284600F078FC04F5B276304600F0A7
:1041500073FC2846642103F0E0FF3046322103F06F
:10416000DCFF284600F0C6FC304600F0C3FC04F536
:10417000B67000210022002300F034FD201D05F060
:1041800017FD04F1600005F013FD0B2084F8D40145
:1041900004F1C400202104F5FC7584F8C070FDF71B
:1041A00040FF2846282184F8D971C4F8D571FDF75D
:1041B00038FFFF2084F81C0201B0F0BD90ED480AE2
:1041C00000F5B670BDEEC00A10EE101A00F029BD61
:1041D00010B54FF498710446FDF723FF4FF07E5061
:1041E000606040F20110A4F8E4004BF2B000A4F8C3
:1041F000FC00002084F8E800C4F8F400A4F8EC0007
:1042000004F5807000F018FC04F5907000F014FCC8
:1042100004F584701421FDF704FF10BDB0B52DED39
:104220000A8B0D4691F82410012202FA01F100EEEA
:10423000101AB8EEC00AB7EE008A88EE009AA96993
:104240000446016095ED000A95ED033A95ED011ADB
:1042500095ED022A142120EE09AA29EE030A80ED29
:1042600001AA80ED040A143029EE02BA29EE01CA2F
:10427000FDF7D7FE28699FED252AA06295ED070A74
:1042800095ED081A29EE000A84ED0D0A29EE010ABF
:1042900084ED0E0A9FED1E0AB2EE041A2BEE000A00
:1042A0002AEE011A31EE001A80EE011A6969002027
:1042B0002CEE022AB5EE400A9FED163AC4E913101F
:1042C00084ED032AF1EE10FA4FF00001B5EE40AA9A
:1042D000606584F8580084ED020A38EE412A18BF60
:1042E0000121F1EE10FA18BF012020EE020AB0EE13
:1042F000432A08401CBFB0EE412AB0EE403A84ED9C
:104300000B2A84ED0C3ABDEC0A8BB0BD6F12033A58
:1043100000007A440000000090ED081A90ED033A86
:1043200090ED094A31EE005A23EE055A90ED0A3A13
:1043300090ED012A35EE044AB4EE434A22EE002AFB
:10434000F1EE10FA80ED094A06DCB1EE433AB4EE24
:10435000434AF1EE10FA03DAB0EE434A80ED093A2F
:1043600032EE042A90ED074A90ED0B5A90ED0C6A5C
:1043700030EE411A25EE044A26EE011A90ED003A7D
:1043800031EE041A32EE014A90ED132A80ED071A3D
:1043900034EE031AB4EE421AF1EE10FA80ED080A78
:1043A00002DDB0EE421A08E0B1EE420AB4EE401A65
:1043B000F1EE10FAB8BFB0EE401A90F85810042988
:1043C00004D8DFE801F00308111A2300B0EE410A17
:1043D00080ED141A2CE090ED150A90ED142A9FED53
:1043E0001C3A9FED1C4A19E090ED150A90ED142A35
:1043F0009FED153A9FED154A10E090ED150A90EDEE
:10440000142A9FED0F3A9FED0F4A07E090ED150A31
:1044100090ED142A9FED083A9FED084A31EE000A0C
:1044200020EE030A22EE042A32EE000A80ED140A7E
:1044300080ED151A704700BF8F90CD3A6F327F3FE5
:104440001F4C243B68B77E3F75B2613B9B3C7E3F6F
:1044500072FA183C2C387B3F2DE9F047044602F0F5
:1044600031FB204603F094FB94F8630020B1204612
:10447000BDE8F04702F07AB894F86C10FF2904D137
:10448000002084F86300BDE8F087D4F80480226F30
:1044900098F800A047F230539A4218DAA06890F8D2
:1044A0000080501C2067C81E01220B2884F863205E
:1044B00000F26D80DFE800F00706720606767A7E6D
:1044C00082868A8EDCE7204603F0DCFF85E0FE2949
:1044D00021D1BAF1000F53D0E168A26900234FF453
:1044E0001A7E4FF4987C5546CE5C16FB0E2696F845
:1044F0001C72062F0CD12569E769ED5CD6F8140211
:1045000015FB0C752863D6F81802686398F80050FC
:104510000133AB42E8D3FF2084F86C004FF00B0866
:104520000020BAF1000F84F85E8084F8630025D083
:1045300000274FF41A794FF4987600BFD4E90301AD
:10454000A269C05DE36910FB092080F8D481C85DD1
:10455000002110FB063000F0C3FD2069E169C05D59
:1045600010FB061000F0A6FA2069E169C05D10FB9F
:10457000061000F0FBFD0137BA45DFD1BDE8F0873A
:10458000FF2084F86C000B2084F85E0078E7FE2999
:104590007FF476AF204604F0A9FF1EE0204603F02A
:1045A0008DFF1AE0204603F0ABFF16E0204604F032
:1045B000CDF812E0204604F0D9FA0EE0204604F0CF
:1045C00031FB0AE0204604F0EBFB06E0204604F055
:1045D00003FC02E0204604F01BFC002884F8630082
:1045E00008BFBDE8F087B8F1000F0ED000274C26B9
:1045F0006069A16DC05D10FB061003F08FFA002802
:104600003FF43EAF0137B845F2D1FF2084F86C008B
:10461000204602F057FA0020BAF1000F84F85E003D
:104620000DD0E168A2694FF41A7300BF11F8017B45
:10463000BAF1010A17FB032787F8D401F6D1204607
:104640000121BDE8F04703F0DBBB00002DE9F04F8E
:1046500081B0054612F0F0FE04218C222B468C26F8
:1046600012F0F4FE044625B305FB06FB00264FF0CE
:104670000B084FF001194FF0FF0A0027E51905F16B
:1046800018001C21AE65C5E90166C5E90366FDF7A2
:10469000C8FC05F134002021A5F85E80FDF7C1FCBF
:1046A0008C37BB45C5F8609085F8656085F86CA0CF
:1046B000E4D1204601B0BDE8F08F000070B592ED66
:1046C0001E0A92ED1F1A92ED202A0170B8EEC00A60
:1046D000F8EEC10AB8EEC21A00F1F80192ED213AE3
:1046E00081EC030A92ED251AB8EEC32AB8EEC11A7E
:1046F000044680ED412A80ED390AC0ED3A0A92ED78
:10470000222A80ED3B1A49F28060C4F61830C4F8C2
:10471000F00084ED542AD2F88C00B7EE003AC4F8C9
:104720005401D2F89000DFED261A83EE023AC4F865
:104730004C01B5EE402A04F5B67015469FED1F4AB0
:10474000F1EE10FA08BFB0EE443A84ED563A03F0A9
:104750001DFBB5F8B81004F5B276304603F0DDFC69
:10476000304600F0C7F90020C4F85801D5F8C4005D
:10477000C4F8BC0095F8C80084F8C000E8B1D5F8CA
:10478000D410D5E93302C4F8CC10C4E93102D5F80D
:10479000E010D5E93602C4F8D810C4E93402D5F8DF
:1047A000E400C4F8DC00D5F8E81004F50870C4F89B
:1047B000E010BDE8704006F00FBA70BD00000000C8
:1047C0008096184B2DE9F04184B0154601700446DF
:1047D000286D0A46606095F865004FF0FF31C0F320
:1047E00040002072686DB0F1FF3FC8BF0121A16495
:1047F00095ED1A0A95ED051A84ED130AB5F86E00C9
:10480000BDEEC11A6081286FA3782063686F022B08
:104810006063A86D84ED181A2065B5F96000E06644
:10482000B5F96C0081B200F08980012B40F09880CE
:1048300008B2B0F5FA4FA8BF4FF4FA402061A5F8CE
:104840006C00002084F8280195F8650004F5947741
:10485000C0F3800084F8280195F86510CB0703D0D9
:104860000230387095F865100B0703D508303870A2
:1048700095F865108B0704D540F00400387095F862
:104880006510CB0603D51030387095F865104906D1
:1048900044BF20303870686DB2EE041AA4F82901C4
:1048A000B5F8620020EE010AA4F82B0195F8640027
:1048B000BDEEC00A84F82D0110EE100A84F82E0116
:1048C0000120012100234FF000081FF0C3FA064623
:1048D0002046294605F02EFD05F12801204605F069
:1048E000C5FD4FF49040ADF8080005F15C00039061
:1048F0000DF098F802A932460DF052FA4FF4EE404E
:10490000ADF8000001970DF08DF8694632460DF0C4
:1049100047FA04F590752846322103F0FEFB28463D
:1049200000F0E8F804F580752846322103F0F5FB25
:10493000284684F8FD8000F0DDF812E008B2B0F5FA
:10494000526FA8BF4FF452602061A5F86C006078E8
:10495000002184F8FC1004B0BDE8F0412EF028B826
:10496000206104B0BDE8F081B0B584B082780C4617
:10497000012A12D0022A2BD154B300F1840500BFC2
:10498000296815F8830C45F8701C09B22EF0FAFA64
:10499000013C05F59875F3D11AE0002103910291CD
:1049A0005CB1843002A900BF026810F8833C013C6E
:1049B00000F5987021F81320F6D140F601700090B0
:1049C00002A801900DF02EF8694600220DF031FA90
:1049D00004B0B0BDB0B504468078012803D194F886
:1049E000F420D2071DD1013902291AD84FF6F872E6
:1049F000C0F2FF0202EAC10140F65022C0F20602F4
:104A0000022822FA01F50ED001280AD12078E9B255
:104A100005F0DCFB04F5807084F8FD5000F06AF8C6
:104A200008E00020B0BD2EF017FB60782EF03CF8B7
:104A300084F8FC500120B0BD0021C0E9001170478E
:104A40001FF0F6B870B5044612F0F6FC04214C22B3
:104A500023464C2512F0FAFC5CB304FB05F100225E
:104A60004FF0010C6FF0802E4FF07E53002400BFFA
:104A7000051995F8406000F804C006F0F0064C34C3
:104A80000736A142A5F83B2085F83D2085F83A205D
:104A90002A87C5E90122C5E90322C5E90723C5E93B
:104AA0000922C5E90B22C5F834E06A6485F8406044
:104AB000DED170BDB0B50446807802280FD0012841
:104AC00018BFB0BD20780021002505F07FFB04F55C
:104AD000807084F8FD50BDE8B04000F00BB86078FD
:104AE0002DF066FF94F8FC00A0281CBF002084F87D
:104AF000FC00B0BD416801607047012202706FF098
:104B00008022426390F8402000214FF07E53A0F8AD
:104B10003B1080F83D1080F83A100187C0E9011180
:104B2000C0E90311C0E90713C0E90911C0E90B117D
:104B3000416402F0F001073180F8401070472DE920
:104B4000F04FDDE90D7ADDE911ECDDE90F98DDE9E3
:104B50000B5B8765071DDDE909465EC7C0E9065B9B
:104B6000C0E908A8C0E90A9EC0F830C0BDE8F08FCF
:104B7000B0B50446B0F8D4010D46888404F5B6708B
:104B800001F0A4FC94ED480A94ED491A94ED4A2AE8
:104B9000BDEEC00ABDEEC11ABDEEC22A85F82600E0
:104BA00085ED000A85ED011A85ED022AD4F82C0165
:104BB000E860B0BD10B50C46D0F814C0026A816E32
:104BC000836A4FF0000E84E80C40A181A4F810C065
:104BD00004F05AFC28B14FF28450C0F6050000687A
:104BE000606110BD80B500EE101A01EE102A02EED1
:104BF000103AB8EEC00AB8EEC11AB8EEC22A0022C6
:104C000000F1300180ED050A80ED061A80ED072ADB
:104C1000C0E9082280F8282008461421FDF701FA8F
:104C200080BD10B590ED000A90ED011A02EE101A49
:104C3000B4EE410AF1EE10FAB8EEC22A0ED0B4EE8C
:104C4000420AF1EE10FA0BDCB4EE421AB0EE420A60
:104C5000F1EE10FAB8BFB0EE410A01E0B0EE420A40
:104C600000F1180180ED040A80ED050A00F130041E
:104C700008461121FDF7D5F920461421FDF7D1F999
:104C800010BD00009FED061A014680ED390A00F5BF
:104C9000B670F0EE411AC1ED3A0A03F077B800BFE2
:104CA0000000000010B504468078022811D00128C9
:104CB00015D12078092105F089FA002084F8FD003B
:104CC00004F58070FFF716FF04F59070FFF712FFF0
:104CD00005E060782DF06CFE002084F8FC000020D8
:104CE00084F8E800C4E93C00C4F8EA00A4F81C0118
:104CF000A4F8E60010BD90F8FC100120062918BFAA
:104D00000A2900D17047502918BF0020704710B5FC
:104D1000044690F83D0084F83B1048B10121E16160
:104D200094F840104FF07E50206221F004000DE016
:104D30004FF0FF30B2F1FF3FC8BF0120E0612046D5
:104D400084ED090A03F044FB94F8400000F0FE00F3
:104D500084F8400010BD70B586B0002800F0BD801A
:104D6000044690F83D00002840F0B78094F84000D9
:104D7000C20740F0B28000224307226313D4B4F983
:104D800034006282A289A18190B38A1A434212B28E
:104D90009342D8BF82422BDD204650F82C1F8289D7
:104DA000013282812AE022780D2A00F294800123C8
:104DB00003FA02F243F602631A4273D094F83C20DD
:104DC000002A00F08280A3898B4240F0818001326A
:104DD00053B2032B84F83C207DDB228AA181E18140
:104DE000891A89B2A1620021618284F83C1067E0CF
:104DF000E28920468A4204D150F82C1FC1EBC10140
:104E000012E050F82C3F8A1A20F81E1C50F8041C9F
:104E100020F81A2C01FA82F140F8041CC3EBC301FC
:104E20004FF47A7313FB0211C91001601DF0D8FB17
:104E30001DF0DFFB05460E461DF0D2FB1DF0E0FB2A
:104E40000246284631460023FCF7BAFB52EA03002B
:104E500043D1208F002840D094F93B100025ADF8B5
:104E60000E10CDE9040502200A21ADF80C501CF00B
:104E700065FA02900EF039F902AE032100220023F8
:104E800000960EF00FF9208FE18E884208D994F831
:104E9000440040F0100084F84400012084F83A00F7
:104EA00025871AE012F0180F15D0228AA181E1811E
:104EB000891A89B20022C4E90A12628284F83C206D
:104EC00000F0FB0084F8400005E00120A18100E033
:104ED000002084F83C000020E06206B070BD90F82D
:104EE000D411062912BF002080ED430A012070472B
:104EF00080B590F8D41109291CBF002080BDB0EE08
:104F0000401A90ED390A90ED3A2AB4EE420AF1EED9
:104F100010FA0ED0B4EE410AF1EE10FA0BDCB4EE4A
:104F2000412AB0EE410AF1EE10FAB8BFB0EE420AE3
:104F300001E0B0EE410A002180ED440AC0F81411EE
:104F400000F5B67002F0A2FB012080BD80B590F89C
:104F5000D4210021082A24D8012303FA02F212F4F2
:104F6000C17F1ED090ED391A90ED3A2AB4EE421A64
:104F7000F1EE10FA0ED0B4EE401AF1EE10FA0BDC9E
:104F8000B4EE402AB0EE401AF1EE10FAB8BFB0EE1F
:104F9000421A01E0B0EE401AB0EE410A04F0F5FE0C
:104FA0000121084680BD90F8D411502912BF00207D
:104FB00080ED430A0120704790F8D411032912BFF5
:104FC000002080ED470A0120704710B52DED048BBD
:104FD000044600F5B270B0EE608AB0EE409AFFF77A
:104FE00089FD94F8D41100200E2941D8012202FA3B
:104FF00001F144F2841211423AD094ED3B0AB4EE2E
:10500000490AF1EE10FA02DAB0EE409A08E0B1EE89
:10501000400AB4EE490AF1EE10FAC8BFB0EE409A69
:1050200094ED3C0AB4EE480AF1EE10FA02DAB0EE62
:10503000408A08E0B1EE400AB4EE480AF1EE10FAF8
:10504000C8BFB0EE408AB5EE408AF1EE10FA04F522
:10505000B67084ED459A84ED468A02D102F0A9FE2D
:1050600005E0B0EE490AF0EE480A02F03BFB0120F1
:10507000BDEC048B10BD80B590F8E61009B101209D
:1050800080BD8178022906D0012907D190F8F4006B
:1050900000F0010003E02DF075FD00E00020002885
:1050A00018BF012080BDD0E90C3293420AD0D0F85D
:1050B00020C0B1F1FF3FD8BF9C450CDB0129A8BF40
:1050C000944508DC026E53428A42A8BF0A468B42CE
:1050D000C8BF1A4600E000224266C0F8842070472C
:1050E000D0E90C3293420AD0D0F820C0B1F1FF3F92
:1050F000D8BF9C450CDB0129A8BF944508DC026998
:1051000053428A42A8BF0A468B42C8BF1A4600E0F3
:1051100000228261C0F8842070470000D0E90C3280
:1051200093420AD0D0F820C0B1F1FF3FD8BF9C45D0
:1051300015DB0129A8BF944511DC00EE101A90ED93
:10514000011AB8EEC00A9FED082A21EE000A80EE8F
:10515000020A4165BDEEC00A10EE101A01E00021FE
:105160004165C0F88410704700007A44B0B582B041
:1051700081780122012980F8E52011D102780120EF
:105180000121002300251EF065FE04464FF48060D7
:10519000019500900CF046FC694622460CF000FE9A
:1051A00002B0B0BD80F858107047000010B190F800
:1051B0003D2002B1704790F840209207FAD1028E4C
:1051C000332A39BF01320286012280F83A200329AE
:1051D00006D80122DFE801F00C060702082202E0EF
:1051E0000F2905D0022290F84410114380F8441092
:1051F000002180F83C10704790F83D00704710B1D6
:1052000090F83D1001B1704790F840108907FAD12D
:10521000418E332939BF01314186012180F83A108E
:1052200090F8441041F0040180F84410002180F807
:105230003C1070472DE9F04F81B02DED048BAAB0E2
:10524000044680690D464FF41A71164615FB01019C
:10525000FE2291F8D4A194F85E9081F8D421002127
:1052600084F85E2084F8631031784AB2D31E0B2B89
:1052700000F2D884DFE813F08B00D6049200AF0070
:10528000BB000C000C0010013F01B20111024402EE
:1052900094F86C30934200F0C584002284F86C10BE
:1052A000E168626522670F784FF41A7517FB0507EE
:1052B000FE236269D4F858C087F8D4314F7817FBC1
:1052C000050787F8D431897811FB050080F8D431BF
:1052D00010784C2510FB05C002F07DFD6069A16DC2
:1052E000407810FB051002F076FD6069A16D8078B2
:1052F00010FB051002F06FFD7068E1696067B0682F
:105300004FF49875E067F068A0672069007810FB9B
:105310000510FFF72BFF2069E169407810FB0510AD
:10532000FFF724FF2069E169807810FB0510FFF783
:105330001DFF2069E169007810FB05100121FFF7CE
:1053400049FB2069E169407810FB05100121FFF756
:1053500041FB2069E169807810FB05100121FFF70E
:1053600039FB2069E169027812FB0512D26BC4F89F
:105370008020427812FB0512D26BC4F8842080781A
:1053800010FB0510C06BC4F8880000F04BBCA06D8A
:105390004C23D6E9031215FB03006CE100202067C3
:1053A000E0694FF49871331D15FB01000ECBD21A42
:1053B00004F00CF8A169002800F068824FF41A701C
:1053C00015FB001002F0AAFCA06D4C2115FB01009A
:1053D00002F001FD90E1308B4FF6FF71884200F042
:1053E0008B82012840F0E68206F1100086E2FE2260
:1053F00084F86C204FF41A724FF0000815FB02007D
:10540000C4F8708080F81C1280F80182A069012124
:1054100015FB020080F80012A06915FB0200D6E916
:105420000312D0F8FC91501A00EE100AD9E91E02BE
:10543000B8EEC00A121A01EE102AB8EEC11A80EEB8
:10544000018A00EE101AB8EEC00A01EE100AB8EE9A
:10545000C11A80EE080A30EE410ABDEEC09A19EE7C
:10546000107A0AF07FFC29463A460BF01CF9002816
:1054700000F0118242F6645204ACC0F606022046E7
:1054800046212B46FCF72AF9CDF800802046294614
:105490000022CDF804809DE284F86C100021216781
:1054A0004FF41A7115FB010002F038FCE0694FF46B
:1054B000987715FB0700002102F000FEE06901214A
:1054C00015FB0700FFF786FAE1697068A26D15FB0E
:1054D00007114C27C86115FB072002F03CFEA06DA8
:1054E000B16815FB07002AB0BDEC048B01B0BDE824
:1054F000F04F04F018BBA06DE42115FB0107F8691B
:105500007168C0EBC032384602F034FEBA6EB16842
:1055100007F14C00C2EBC23202F02CFED7F8B420E7
:10552000F16807F19800C2EBC23202F023FE204678
:1055300001F0C8FAE0694FF4987715FB07000021E5
:1055400002F0BCFDE069012115FB0700FFF742FAFC
:10555000E06915FB0700FFF709FEA0694FF41A7117
:1055600015FB01004FF4F851C0F8E411716990ED9A
:10557000481A9FEDDF2AC0F8E81131EE021A3169AE
:1055800090ED3A0ABDEEC12AB8EEC21AC0F8F41185
:105590004FF46171B4EE410AC0F8EC1100F5F871F6
:1055A000F1EE10FA80ED7C2ABEBFBDEEC00A81ED9F
:1055B000000AB8EEC01A90ED390AB4EE410AF1EED5
:1055C00010FAC4BFBDEEC00A81ED000A307884F83D
:1055D0006C00012060650020206723E30DF0E5FAF0
:1055E00029460DF01AFBD6E90121002A00D55242C6
:1055F00000EE102A90ED301AB8EEC00A21EE000A33
:10560000BDEEC00A10EE102A48F20003D0F8980050
:10561000CFF6FF73B2F5004FB8BF4FF40043002838
:105620000FF21870C8BF043090ED000A03EB0208B7
:1056300080EE010A42F676420DF11009C0F606022C
:105640002B46CDF80080BDEEC00A10EE100A0F18F0
:10565000484650210197FCF741F800234846294667
:1056600000220093019302F036FDA06D4C2115FB42
:10567000010041463A4602F07DFDE0694FF498771B
:1056800015FB0700002102F019FDE069B4F9401094
:1056900015FB0700FFF79EF92EE0A06D4FF49878F8
:1056A00015FB0807F8697168C0EBC032384602F094
:1056B00061FDBA6EB16807F14C00C2EBC23202F074
:1056C00059FDD7F8B420F16807F19800C2EBC23257
:1056D00002F050FDD7F80021316907F1E400C2EB78
:1056E000C23202F047FD204601F0ECF9E0690021EA
:1056F00015FB080002F0E2FC307884F86C0091E2BF
:1057000096ED020A4FF41A77B8EEC00A15FB0700AF
:1057100080ED810AA069B16915FB0700C0F8081285
:105720004FF0000B0E20C4F870B084F86C00A06934
:10573000317815FB070080F81C12012180F8001257
:10574000A0690DF1100815FB070080F801B2404672
:105750004621FCF766FCA06915FB0700D0F804029F
:1057600038F006FD41EC100B70680FF248520290C1
:10577000404646218DED000BFBF7B0FF4046294621
:105780000022CDF800B0CDF804B002F0A4FC14F073
:1057900027F814F0C3FA002800F08D800DF11008EE
:1057A00040464621FCF73DFC7068B76900900FF257
:1057B0002852404646212B460197FBF78FFF404673
:1057C00029460022CDF800B0CDF804B002F083FCE9
:1057D000D6E904019FED471A08448121C8F2080167
:1057E00051FB00012B46CA1302EBD171C1EB013111
:1057F000327BA0EB01100146012A08BF494200EEAE
:10580000101AB8EEC00A20EE010AB2EE041A20EE19
:10581000010ABDEEC08A00900FF2E84240464621E0
:105820008DED018AFBF75AFF404629460022CDF84C
:1058300000B0CDF804B002F04EFC30691EF0CCFA96
:105840003369377B804600900FF2D44204A846218A
:105850000197FBF743FF04A829460022CDF800B0CA
:10586000CDF804B002F037FC08F0FE000E2840F03E
:10587000B48004AC20464621FCF7D3FB42F69D528F
:10588000C0F606022046462143469BE04FF41A70BC
:1058900015FB0010FFE00AF065FA2946B0EE480A51
:1058A0000AF0F3FE002800F0708142F6FD42C0F6D7
:1058B000060204AC7AE048F61460C0F6060090E8F0
:1058C0008E00D0E90464D0F818C0808B0DF1600E12
:1058D0008EE88E00ADF87C0018A829460022CDE99C
:1058E0001C64CDF878C0CDF800B0CDF804B071E0FC
:1058F000000061440000B43B06F10C0090ED000A8A
:10590000D6E9037342F6BF420DF11008C0F6060255
:1059100040464621B8EEC09A0097FBF7DFFE00270D
:105920004046294600220097019702F0D4FBFE2052
:10593000276784F86C00A16930784FF41A7215FB60
:10594000021181F81C02012081F80002A06915FBF8
:10595000020080F80C72A06915FB0200D0F8FC71FF
:1059600010F050FE11F0CBF8002800F09980D6E935
:105970000301081A00EE100AD7E91E01B8EEC00AAA
:10598000081A01EE100AB8EEC11A80EE018A0AF078
:10599000E9F92946B0EE480A0AF093FE002800F023
:1059A000B28042F63252C0F6060218AC20464621BA
:1059B0002B4607E042F6E64204AC03B2C0F606020C
:1059C00020464621FBF78AFE002320460093294605
:1059D0000022019302F07FFB24E1B8F10F0F18EED3
:1059E00010BA00F26481012000FA08F04CF20F01B5
:1059F000084208BF4FF00F08306942F6984204AFE2
:105A00000090C0F60602384646212B46CDF80480A9
:105A1000FBF764FE002338462946002200930193D9
:105A200002F059FB13F0DCFE337B29464246CDF8E9
:105A300000B013F0BDFD002800F0D5800DF1100B73
:105A40000BF121002521FCF7CAFA48F67060C0F678
:105A5000060090E88E0000F1100E9EE84050D0F84D
:105A60001C8090F82000049108A90592069381E813
:105A700040508DF8300000235846294600220797F1
:105A8000CDF82C800093019302F025FBA0694FF420
:105A90001A7115FB010080F8D4A184F85E90C1E072
:105AA00013F09EFE14F03AF9002800F0C180A069BE
:105AB0004FF41A7115FB010080ED819AA0694FF037
:105AC000000815FB0100C0F81082A06915FB010059
:105AD000D0F8040238F04CFB41EC100B42F68E5229
